:020000040800F2
:1000000008040020E1050008970200089B02000890
:1000100000000000000000000000000000000000E0
:10002000000000000000000000000000570500086C
:100030000000000000000000BF050008CB0500081C
:1000400007060008090600080B0600080D06000850
:100050000F06000811060008130600081506000820
:100060000000000017060008190600081B0600081B
:100070001D0600081F0600082106000823060008C8
:1000800025060008270600082906000800000000D1
:100090002B0600082D0600082F0600083106000870
:1000A0003306000835060008370600083906000840
:1000B0003B0600083D0600080000000000000000AC
:1000C00038480168820D0A430260C168364A0A4016
:1000D000C2600168354A0A4002608168012291438A
:1000E00081600168324A0A400260C168314A0A40B0
:1000F000C26000210161802000052F49086070471F
:1001000030B5284DE9680C2008402C4C04D0042858
:100110000CD0082813D015E06868400B4007400F4A
:100120000121401C8140C803206031E02868C006DE
:1001300002D5234820602BE02248206028E0224896
:10014000206025E0E968F02080030840EA68C021CB
:100150000904114021A2800C105C890D491CEA6839
:1001600080235B021A400ED12A68D20605D5144AB4
:10017000504300F039F820600AE0124A504300F082
:1001800033F8206004E0104A504300F02DF820605E
:100190000EA0E96809090907090F405C2168C14000
:1001A000216030BD001002400C40FF88F6FFF6FED3
:1001B000FFFFFBFFFFFF02FF08ED00E00000002053
:1001C00000093D000024F40000127A000000000045
:1001D00000000000010203040607080903040608E2
:1001E0000C101820300000000022030A8B420BD2B2
:1001F00003098B4219D243088B422ED2411A00D2F6
:100200000146524110467047FF2209023FD01206B4
:100210008B4205D3121209028B4201D3121209023A
:1002200003098B4219D300E0090AC3098B4201D3A9
:10023000CB01C01A524183098B4201D38B01C01AF2
:10024000524143098B4201D34B01C01A5241030969
:100250008B4201D30B01C01A5241C3088B4201D318
:10026000CB00C01A524183088B4201D38B00C01AC5
:10027000524143088B4201D34B00C01A524188427D
:1002800000D3401A5241CFD201461046704708B5FC
:1002900000F002F808BDFEE77047FEE70121C00646
:1002A000C00E814035480160704710B4C200182369
:1002B0001340FF249C40E2438901C9B299400300E6
:1002C0000BD52F4B0007000F083880088000181846
:1002D00003681A401143016007E02A489B089B000D
:1002E000C01803681A401143016010BC704770B514
:1002F000012425480168214301608168A2030A4363
:100300008260A020C0050168204A0A40026001689E
:10031000E2040A43026001681D4A0A400260016863
:1003200062050A43026001681A4A0A4002600168D5
:10033000A2050A430260416A8822D2000A4342624F
:1003400000211B20FFF7B1FF1B20FFF7A7FF124D75
:10035000EE6812480068E1214902FFF745FF30438B
:10036000E860286804432C6028680821014329605C
:10037000286824210143296070BD000000E100E0ED
:100380001CED00E000E400E02C100240FFFFF3FF52
:10039000FFFFCFFFFFFF3FFF0038014000000020BC
:1003A00080B500F016F8FFF7ABFE00F048F82948DA
:1003B000FFF79DFF28480168802212050A4302606A
:1003C000FA218900C80000F080F8244800F0A6F85F
:1003D000FEE723480021C160C2680C231340FBD113
:1003E000026801239A43026002685207FCD4026843
:1003F0001C4B1340036002689201FCD4026D1A4B3F
:10040000134003650161C1688022D2040A43C260BF
:100410000168802252020A43026001688903FCD508
:100420000221C2680A43C260C2680A40FCD0016867
:100430000E4A0A40026001688905FCD470470C48E6
:10044000016802220A4302608A20400009490860CC
:100450007047000004000020180000500010004009
:1004600000100240FFFFFFFEFFFF7FFFFFFEFFFFC8
:100470002C100240000400500121C006C00E814033
:1004800021480160704710B4C20018231340FF24B4
:100490009C40E2438901C9B2994003000BD51B4B34
:1004A0000007000F083880088000181803681A40F9
:1004B0001143016007E016489B089B00C0180368C1
:1004C0001A401143016010BC704710B5114A1368FF
:1004D00010241C431460104AD369401E1843D06195
:1004E000481E1062012091680143916000BF002105
:1004F000516011680843106000211120FFF7C3FF0D
:100500001120FFF7B9FF10BD00E100E01CED00E095
:1005100000E400E0381002400C10004001680122A5
:100520000A430260704730B401220168001D0029AF
:100530000FD00368C31844680830144202D04D46F7
:100540006D1E64191D6825601B1D241D091FECD03C
:10055000F8E730BC7047FEE710B507497944183119
:10056000064C7C44163404E0081D0A688918884744
:100570000100A142F8D110BD0800000018000000E1
:10058000A7FFFFFF0800000074000000000000202B
:100590000000000000F00DF8002801D0FFF7DCFF9C
:1005A00000BF00BF002000BF00BFFFF7F9FE00F052
:1005B00002F80120704780B500F002F801BDFEE7A7
:1005C0000746384600F002F8FBE7FEE780B500BFBB
:1005D00000BF024A11001820ABBEFBE72600020054
:1005E0000148804701480047C1000008F1050008A4
:1005F00000BF00BF00BF00BFFFF7CCFF000020001E
:10060000000000000000FEE7FEE7FEE7FEE7FEE771
:10061000FEE7FEE7FEE7FEE7FEE7FEE7FEE7FEE7B2
:10062000FEE7FEE7FEE7FEE7FEE7FEE7FEE7FEE7A2
:0E063000FEE7FEE7FEE7FEE7FEE7FEE7FEE779
:04000005080005F1F9
:00000001FF
